:020000040800F2
:1000000070160020FD590008195A00081D5A0008F2
:10001000215A0008255A0008295A0008000000004B
:100020000000000000000000000000002D5A000841
:10003000315A000800000000355A000861570008D6
:10004000B5570008395A00083D5A0008415A0008BF
:10005000455A0008495A00084D5A0008515A0008EC
:10006000555A0008595A00085D5A0008735700088D
:10007000615A0008655A0008695A00086D5A00085C
:10008000715A0008755A000875570008795A000817
:100090007D5A0008815A0008855A0008895A0008CC
:1000A0008D5A0008915A00088F570008955A000889
:1000B000995A00089D5A000800000000A15A000843
:1000C000A55A00080000000000000000A95A00081E
:1000D00000000000AD5A0008B15A0008A5570008FA
:1000E000B55A0008B95A00080000000000000000DE
:1000F0000000000000000000000000000000000000
:1001000000000000000000000000000000000000EF
:100110000000000000000000BD5A0008C15A00089D
:1001200000000000000000000000000000000000CF
:1001300000000000000000000000000000000000BF
:10014000C55A0008C95A000800000000CD5A00082E
:10015000D15A0008D55A0008D95A0008DD5A0008BB
:10016000E15A0008E55A0008000000000000000005
:10017000000000000000000000000000000000007F
:1001800000000000E95A000870B582B0002504465E
:10019000009514B9012002B070BD606CC10666D430
:1001A000606C002847D1A5642065E06484F84000B5
:1001B000204601F014F820688168C8003BD420462E
:1001C00000F05FFF0546606CC10634D4280032D1D0
:1001D000606CDFF8503520F4885040F00200606415
:1001E0002068816821F0405181602068816841F079
:1001F00080518160DFF830050168A1FB0332D20C29
:1002000002EB8206760000960098A0B10099491E84
:100210000091009878B10099491E0091009850B162
:100220000099491E0091009828B10099491E00913B
:1002300000980028EAD120688168CA0002D5806849
:10024000810014D5606C20F0020040F01000606462
:10025000A06C40F00100A064606C606C20F00200B3
:1002600040F0100060640125284602B070BD606C4B
:10027000C106F2D42800F0D1206881684A07ECD486
:10028000616C21F4807141F0020161644FF0A04182
:100290008368B0F1A04F0CBF01F580720A4603F0ED
:1002A0000303012B02D10068C3070FD4906800F04C
:1002B0000300012802D11268D00707D4D1F808231F
:1002C000606822F440320243C1F80823A06BE16861
:1002D0000128E06914BF4FF48052002242EA403204
:1002E0000A43A1680A43616A012911D130B9A06AA1
:1002F000401E400440F48030024309E0606C20F06E
:10030000020040F020006064A06C40F00100A06496
:10031000E16A012902D0206B01430A432168886801
:1003200010F00C0F0AD1CB68DFF898040340CB60C3
:10033000616BA069490041EA80310A432168DFF816
:100340008804CB6803401A43CA60206901282068EA
:10035000016B05D1226A0909521E42EA011101E02E
:100360000909090101630020A064606C20F002000B
:1003700040F00100606477E730B5040081B008BF49
:10038000012000F0BA80606C40F0020060646C21D3
:10039000204600F0A8FE050040F0AB802068C16850
:1003A00041F40011C160204600F06BFE050040F0F2
:1003B00081800120606420684168C90AC9024160E7
:1003C00040F2FF70216808602068816821F0E041F8
:1003D00081602068816841F000518160DFF8EC03A2
:1003E0002168CA680240CA60206841696FF3DD0174
:1003F00041612068816901F0784181612068016A6A
:1004000001F0F02101622068416A21F0FF11416290
:100410002068816A21F0FF118162DFF8B40321684E
:100420000A6B02400A632068DFF8A813426B0A4097
:1004300042632068826B11408163DFF89C0321686E
:10044000CA6B0240CA632068DFF89013026E0A404C
:1004500002662068426E0A4042662068826E0A4048
:1004600082662068C26E1140C1662068DFF8701392
:10047000D0F8A0200A40C0F8A0202068D0F8A4201E
:100480000A40C0F8A4202068D0F8B0201140C0F87D
:10049000B0102068D0F8B41021F07F11C0F8B4106B
:1004A0004FF0A0412068B0F1A04F0CBF01F5807261
:1004B0000A4601E001251CE0836803F00303012BD9
:1004C00002D10068C3070ED4906800F00300012831
:1004D00002D11268D00706D4D1F80823DFF8E80368
:1004E0000240C1F80823204600F0C0FE0020A064AE
:1004F0006064002084F84000284601B030BD30B56B
:10050000044681B020688168480765D494F84000AB
:10051000012861D0012184F84010204600F083FDBD
:10052000010054D1626CDFF8A4130A4042F48072D7
:100530006264DFF89C132268D1F8FC3213F01F0FBD
:1005400018BFB2F1A04F05D1636C23F4801363642C
:10055000D26808E0636CDFF87C5343F48013AA424E
:10056000636408D10A68930105D5626C22F40052D5
:1005700042F480526264626CD30404D5A26C22F00F
:100580000602A26401E00023A364002284F8402054
:100590001C2223681A60D1F8FC2212F01F0F1EBF24
:1005A000D1F8FC2202F01F02052A09D0D1F8FC1272
:1005B00001F01F0109291CBF2268B2F1A04F0CD124
:1005C00021688A6842F004028A6001B030BD0021CF
:1005D00084F8401001B030BD022001B030BD10B52C
:1005E000044694F84000012801D1022010BD0121E9
:1005F00084F8401020466C2100F075FD01000AD1FE
:10060000204600F03EFD010005D1616C21F48851C7
:1006100041F001016164002184F8401010BD2DE912
:10062000F04104460E46206881684807904674D41D
:1006300094F84000012808BF022070D00121DFF8A3
:10064000907284F84010D7F8FC0210F01F0F5FD1B1
:10065000204600F0E8FC05005BD1616CDFF86C021D
:10066000014041F4807161642068D7F8FC1211F0F8
:100670001F0F18BFB0F1A04F05D1616C21F480119C
:100680006164C06808E0616CDFF8482241F48011C1
:100690009042616408D13868810105D5606C20F40E
:1006A000005040F480506064606CC10404D5A06CBC
:1006B00020F00600A06401E00021A164002084F87D
:1006C00040004346E16BDFF810028862E16BDFF81F
:1006D0000C02C862E16BDFF8080208631C20226884
:1006E000106032462068416841F010014160206886
:1006F000C16841F00101C160206800F14001E06B78
:1007000000F0D5FF2068816841F00401816005E0B8
:100710000125002084F8400000E002252846BDE8BD
:10072000F081000006BD3786A80B002070B5044696
:100730000E4694F84000012801D1022070BD01212D
:1007400084F84010204600F09CFC050029D10120CF
:100750006064012E2068816821F08041816004D1AD
:100760002068816841F0804181602068816841F0A3
:100770000041816000F0D8FF0646206881680029AA
:1007800015D500F0D1FF801B0B28F6D3606C20F04C
:10079000020040F010006064002084F84000012056
:1007A00070BD002084F840000125284670BD606CB3
:1007B00020F0020040F001006064002084F8400056
:1007C000284670BDFDBFFFFF07C0F0FF048000801A
:1007D000300882E0200882E020F8FFFF00F0FF03ED
:1007E0000100F8FF30B5044681B020688168080731
:1007F00066D494F84000012862D0012184F84010AA
:10080000204600F010FC010055D1626CDFF80014A6
:100810000A4042F480526264DFF8F8130A6812F06A
:100820001F0F1CBF2368B3F1A04F07BF626C22F4F7
:100830008012626C42F480126264626CD3055CBF09
:100840000023A364002284F84020602223681A60F9
:100850002268D3689D0203D5536843F480635360D4
:100860006269082A2268536807D123F02003536085
:100870002268536843F0400301E043F06003536093
:100880002268D3689C011CD40C6814F01F0F1EBF93
:100890000B6803F01F03062B07D0096801F01F0146
:1008A000072918BFB2F1A04F0BD1916841F00801A0
:1008B000916001B030BD002284F8402001B030BD0D
:1008C000022001B030BD0000E0103CFEFEF1FFFF51
:1008D0000C00005000010050C70F00080B1000086A
:1008E00011100008F0B4024681B0084600210091C2
:1008F00092F84040012C08BF022000F086810123BD
:1009000082F8403013689C68650700F1758146687D
:1009100004681F25042E0AD806EB46077E001F6BCD
:10092000B54027EA0505B4402C431C6326E00A2E97
:100930000BD2761F06EB46077E005F6BB54027EAB9
:100940000505B4402C435C6318E00F2E0BD20A3E21
:1009500006EB46077E009F6BB54027EA0505B440CD
:100960002C439C630AE00F3E06EB46077E00DF6BDC
:10097000B54027EA0505B4402C43DC6313689C6846
:1009800014F00C0F40F089800568846807260A2D52
:100990000AD30A3D05EB45059F69AE4027EA0606E6
:1009A000AC4034439C6108E005EB45055F69AE400F
:1009B00027EA0606AC4034435C6114684369E56885
:1009C000ED086D0005F0060503FA05F503695B1EE9
:1009D000032B33D8DFE803F0020E1A26266EDFF869
:1009E000B8371E40036846EA8366354345F0004544
:1009F000256652E0666EDFF8A0371E40036846EABF
:100A00008366354345F00045656646E0A66EDFF82F
:100A100088371E40036846EA8366354345F0004543
:100A2000A5663AE0E66EDFF870371E40036846EAD6
:100A30008366354345F00045E5662EE0236E056884
:100A400003F0F843B3EB856F03D1236E23F000432B
:100A5000236613685C6E056804F0F844B4EB856F98
:100A600003D15C6E24F000445C6613689C6E0568DC
:100A700004F0F844B4EB856F03D19C6E24F000447D
:100A80009C661368DC6E056804F0F844B4EB856F6F
:100A900003D1DC6E24F00044DC6613689C6804F02B
:100AA0000304012C03D11D68EC0700F1AA80C5687E
:100AB00004680126012D06FA04F406D0D3F8B060CC
:100AC00026EA0404C3F8B0401FE0D3F8B0502C432A
:100AD000C3F8B04007230668846815680A2E0AD355
:100AE000093E06EB4606AF69B34027EA0303B4406C
:100AF0002343AB6109E0761C06EB46066F69B34001
:100B000027EA0303B44023436B610068102805D132
:100B10004FF0A043D3F80843230206E0112806D182
:100B20004FF0A043D3F80843E3016AD407E012284A
:100B300067D14FF0A043D3F80843630261D414682F
:100B4000A6684FF0A043B4F1A04F0CBF03F5807529
:100B50001D4606F00306012E02D12768FE074BD47E
:100B6000AE6806F00306012E02D12D68EE0743D4CD
:100B700010282CD1B4F1A04F43D1D3F80803DFF8EB
:100B80001C5640F40000C3F80803DFF81436186858
:100B9000A0FB0554E40C04EB840676000096009854
:100BA00000282ED0009B5B1E0093009848B3009B4A
:100BB0005B1E0093009820B3009B5B1E009300987F
:100BC000F8B1009B5B1E00930098D0B1EAE71128B2
:100BD00009D1B4F1A04F14D1D3F8080340F08070CC
:100BE000C3F808030DE012280BD1D3F8080340F432
:100BF0008000C3F8080304E0506C40F0200050640B
:100C00000121002082F84000084601B0F0BC704786
:100C1000FEDFFFFF08030050F0B4024681B0084633
:100C20000021009192F84040012C08BF022000F002
:100C3000C781012382F840301369002B1CBF8469EF
:100C4000012C19D14368012B10D10468836A240256
:100C5000012B02D01C43C36A1C431568DFF84435DE
:100C6000EE6C1E402643EE64D4642CE0516C41F0DF
:100C700020015164012126E0136D53B91465D1643C
:100C80008469836A641E012B02D01C43C36A1C431F
:100C9000D4644368D56C066803EB430463009B1C73
:100CA0001F249C4025EA040406FA03F31C43136D39
:100CB000D4645B1E136506D11568DFF8E834EE6C6A
:100CC0001E403443EC641468A3681D071AD4456AB7
:100CD000036A4BB9E668C36926F4401646EA4555EF
:100CE00045EA0355E5600DE0E36823F4401343EA69
:100CF0004555E560C369012B04D1516C41F02001D9
:100D00005164012113689C6814F00C0F40F0A1801D
:100D1000846A012C07D1DD68046A25F0007545EA74
:100D20004465DD600BE0DC6824F00074DC60036A7D
:100D3000012B04D1516C41F020015164012105685F
:100D40008368146807260A2D0AD30A3D05EB45057A
:100D5000A769AE4027EA0606AB403343A36108E02B
:100D600005EB45056769AE4027EA0606AB4033430D
:100D7000636114684369E568ED086D0005F00605D8
:100D800003FA05F503695B1E032B33D8DFE803F094
:100D9000020E1A26266EDFF800341E40036846EA6B
:100DA0008366354345F00045256652E0666EDFF800
:100DB000E8331E40036846EA8366354345F0004544
:100DC000656646E0A66EDFF8D0331E40036846EA4B
:100DD0008366354345F00045A5663AE0E66EDFF8E8
:100DE000B8331E40036846EA8366354345F0004544
:100DF000E5662EE0236E056803F0F843B3EB856FDC
:100E000003D1236E23F00043236613685C6E0568EC
:100E100004F0F844B4EB856F03D15C6E24F0004419
:100E20005C6613689C6E056804F0F844B4EB856F4B
:100E300003D19C6E24F000449C661368DC6E056848
:100E400004F0F844B4EB856F03D1DC6E24F0004469
:100E5000DC6613689C6804F00304012C03D11D6850
:100E6000EC0700F1A980C56804680126012D06FA87
:100E700004F406D0D3F8B06026EA0404C3F8B04006
:100E80001FE0D3F8B0502C43C3F8B04007230668E6
:100E9000846815680A2E0AD3093E06EB4606AF6938
:100EA000B34027EA0303B4402343AB6109E0761C57
:100EB00006EB46066F69B34027EA0303B4402343B9
:100EC0006B610068102805D14FF0A043D3F80843A8
:100ED000230206E0112806D14FF0A043D3F80843BF
:100EE000E30169D407E0122866D14FF0A043D3F89C
:100EF0000843630260D41468A6684FF0A043B4F1BD
:100F0000A04F0CBF03F580751D4606F00306012EA9
:100F100002D12768FE074AD4AE6806F00306012E08
:100F200002D12D68EE0742D410282BD1B4F1A04F86
:100F300042D1D3F80803DFF8645240F40000C3F84C
:100F40000803DFF85C321868A0FB0554E40C04EBDE
:100F5000840676000096009870B3009B5B1E009399
:100F6000009848B3009B5B1E0093009820B3009B41
:100F70005B1E00930098F8B1009B5B1E00930098E5
:100F8000D0B1EAE7112809D1B4F1A04F14D1D3F8B8
:100F9000080340F08070C3F808030DE012280BD15D
:100FA000D3F8080340F48000C3F8080304E0506C51
:100FB00040F0200050640121002082F840000846E3
:100FC00001B0F0BC7047416A4A6C12F0500F19D161
:100FD000486C40F4007048640A68D06810F4406FB0
:100FE00004BFC86900280AD14A6C22F480724A649E
:100FF000486CC20403D4486C40F0010048640846C1
:1010000000F098BBC96B0A6B1047406A00F093BBB5
:10101000406A416C41F040014164816C41F004013F
:10102000816400F089BB30B5044681B021688868CE
:1010300000F00300012802D10A68D0071ED4886896
:101040006FF39E1078B9886840F00100886000F066
:101050006BFB054620680168CA070FD400F064FBEB
:10106000401B0328F6D3606C40F010006064A06C55
:1010700040F00100A06401B0012030BD002001B0AB
:1010800030BD30B5044681B02068816801F00301AD
:10109000012925D10268D10722D5816801F00D010F
:1010A000012912D1816841F0020181600320216889
:1010B000086000F039FB054620688168C8070FD535
:1010C00000F032FB401B0328F6D3606C40F01000A8
:1010D0006064A06C40F00100A06401B0012030BD4C
:1010E000002001B030BD70B504462268906810F051
:1010F0000C0F4ED0D06883010FD5E069012804BFE2
:10110000A369012B09D10C21274800E0401E136878
:101110005D063BD40028F9D12EE060290CD0206870
:101120008268530706D58268930703D4826842F029
:10113000100282600C2912D020688268130706D53D
:101140008268930703D4826842F02002826060299B
:1011500003D06C2903D10C2502E0082500E004250A
:1011600000F0E2FA064620688168294211D000F0BA
:10117000DBFA801B0C28F6D3606C40F01000606432
:10118000A06C40F00100A064012070BD4020106000
:10119000C5E7002070BD000000F0FF8306BD378664
:1011A000A80B0020002008820094090000B5DFF899
:1011B0003C0381B0016841F001010160006800F06A
:1011C000010000900098072000F0B8FA01B05DF827
:1011D00004EB002200214FF0FF3000F0BCBA30B524
:1011E000044687B02068B0F1A04F3DD1C048C14D42
:1011F000016841F0805101600F21006800F08050CB
:10120000009003220098019100200390029201A90E
:10121000B94800F00DFB032000210D22029003913C
:10122000019201A94FF0904000F002FBB348286002
:1012300000206860A8608020E8604FF4007028619A
:101240004FF4006068612020A8610020E861284612
:1012500000F068F9E5636C6200220021122000F0C2
:101260007AFA122000F0A3FA07B030BD10B5044698
:101270002068B0F1A04F15D19D48026822F080523D
:10128000026007219C4800F0A9FB0D214FF090401F
:1012900000F0A4FBE06B00F06BF9BDE810401220F9
:1012A00000F08EBA10BD81B000689549884209D11E
:1012B0008E48016841F000510160006800F0005064
:1012C0000090009801B0704700688D49884200D0B6
:1012D000704700B585B04FF44071009102200021A5
:1012E0000190029103200D21039004914FF0904052
:1012F000694600F09DFA05B000BD81B00068B0F10C
:10130000804F09D17F48016841F001010160006808
:1013100000F001000090009801B0704710B504463D
:1013200082B020687849884208D17048416841F00D
:1013300002014160406800F0020044E073498842C5
:1013400011D16A48416841F01001416000224068B3
:1013500000F01000009000210098362000F0FBF90A
:10136000362000F024FA20686949884208D15F4895
:10137000016841F400310160006800F4003022E0AF
:101380006449884214D15948016841F480210160C0
:101390000122006800F480200090002100981A20AB
:1013A00000F0D9F902B0BDE810401A2000F0FFB9F2
:1013B0005949884209D14D48016841F480310160A2
:1013C000006800F480300090009802B010BD10B5A5
:1013D000044686B02068B0F1804F0DD120210091E5
:1013E000022000210190029103910122049269469A
:1013F0004FF0904000F01CFA226845498A420DD116
:101400004FF480700090022100200290039001911F
:10141000012004906946414800F00AFA20683A49E0
:1014200088420DD1502100910220002102910391A8
:101430000190022104914FF09040694600F0F8F9C4
:101440002068354988420CD10221009101914FF06A
:10145000904000210291039109210491694600F016
:10146000E7F906B010BD00682D49884200D07047EA
:1014700000B5244887B0016841F4802101604FF431
:101480004061006800F480200090022200980191E1
:10149000012003900321072004910590029201A9E5
:1014A0001E4800F0C5F901220021272000F053F961
:1014B000272000F07CF907B000BD00B5114881B0CD
:1014C000016841F4006101600022006800F40060DE
:1014D000009000210098002000F03DF901B05DF877
:1014E00004EB002000F063B9000000001810024077
:1014F0001410024028140020000800480800024090
:10150000007401401C100240000400400010004024
:1015100000440140004801400040014000040048F0
:101520000048004008B90120704790F8211011B917
:10153000002280F82020022180F821100268136820
:1015400041686FF30D130B4381680B43C1680B4374
:1015500001690B4341690B4381690B43C1690B432B
:10156000136000214163012180F8211000207047A1
:1015700081B000281ABF90F821100229012000F044
:10158000948001680A68520852000A6000210368CA
:10159000196002685160036899600268D16002684E
:1015A000DFF868118A4208BF022322D0DFF86031D9
:1015B0009A4208BF20231CD0DFF858319A4208BF56
:1015C0004FF4007315D0DFF850319A4208BF4FF442
:1015D00000530ED0DFF844319A4208BF4FF4003375
:1015E00007D0DFF83C319A420CBF4FF400134FF0A4
:1015F0000073DFF83021136003688B4208BF0823B3
:1016000022D0DFF80CC1634508BF80231CD0DFF86F
:1016100004C1634508BF4FF4006315D0DFF8F8C07C
:10162000634508BF4FF400430ED0DFF8F0C06345B8
:1016300008BF4FF4002307D0DFF8E4C063450CBFB8
:101640004FF400034FF00063136003688B4208BF40
:10165000042122D0DFF8B8108B4208BF40211CD0F3
:10166000DFF8B0108B4208BF4FF4806115D0DFF86F
:10167000A8108B4208BF4FF480410ED0DFF89C10B9
:101680008B4208BF4FF4802107D0DFF894108B42C3
:101690000CBF4FF480014FF0806111600021416365
:1016A00080F8211080F82010002001B0704730B47D
:1016B00081B090F82040012C08BF022023D00224E2
:1016C000012580F8214080F82050046825686D08C5
:1016D0006D00256063604068102807BFA260E1606C
:1016E000A160E260206840F002002060216841F0C3
:1016F00004012160206840F008002060002021687B
:1017000041F00101216001B030BC70470800024087
:101710001C000240300002404400024058000240D9
:101720006C0002400400024001480068704700BF9E
:10173000641400207047704770470000344A1368F3
:101740004FF6FF0100020B4000F4E06018433149FE
:1017500008431060704730B42D4B81B01C68C4F34F
:101760000223C3F10704052C28BF04241D1D072DE7
:1017700034BF0023DB1E012505FA04F4641E21405A
:10178000994005FA03F35B1E1A4011430901002832
:1017900008D5214A00F00F00104400F8041C01B0E5
:1017A00030BC70471D4A115401B030BC7047012253
:1017B00000F01F011A4B8A40400943F8202070476F
:1017C000012200F01F01174B8A40400943F82020F6
:1017D0007047401EB0F1807F01D30120704712494D
:1017E0004860F02081F8130D002088600720086011
:1017F0000020704704280C4904D1086840F0040018
:10180000086070470A6822F004020A60704700000E
:101810000CED00E00000FA0518ED00E000E400E047
:1018200000E100E080E100E010E000E001F051B8EC
:101830002DE9F04F81B08E464FF00008DEF80070C1
:10184000A549A64AA64BDFF89C92002F4FF00F0A3D
:101850004FF0010B00F0BE804FEA0007DEF80000F9
:101860000BFA08F4204000F0AD80DEF80440022CB2
:1018700018BF122C14D14FEAD80407EB840C4FEA9E
:101880008804DCF8205004F01C040AFA04F6B5437E
:10189000DEF8106006FA04F454EA0504CCF820409F
:1018A0004FEA480C03243D689EF8046004FA0CF4E7
:1018B000E44306F00306254006FA0CF635433D6086
:1018C000DEF80450012D18BF022D03D0112D18BFD2
:1018D000122D13D1BD68DEF80C60254006FA0CF617
:1018E0003543BD600BFA08F67D68B543DEF8046049
:1018F000C6F3001606FA08F635437D60FD682C40F5
:10190000DEF8085005FA0CF52C43FC60DEF80440C4
:10191000E40057D5D9F8004044F00104C9F800406C
:101920004FEA980CD9F8005005F001050095B7F181
:10193000904F009C53F82C604FEA880404F00C048C
:101940000AFA04F526EA050508BF00260ED09742DC
:1019500008BF01260AD0644EB74208BF022605D050
:10196000624EB7420CBF0326052600BF06FA04F4F8
:101970002C4343F82C406FEA000C0C68DEF804504E
:101980000CEA0404EE0348BF04430C604C68DEF824
:1019900004500CEA0404AE0348BF04434C608C6856
:1019A000DEF804500CEA0404EE0248BF04438C60E5
:1019B000CC68DEF804500CEA0404AD0248BF0443CE
:1019C000C1F80C4008F10108DEF8000030FA08F018
:1019D0007FF444AF01B0BDE8F08F00002DE9F04F77
:1019E0005FEA010B81B04FF0000C3B493B4A3C4B96
:1019F0004FF00F094FF0010A63D006460AFA0CF0C7
:101A000010EA0B0058D003244FEA4C05AC406FEAB3
:101A10000408346808EA040434604FEADC0506EB85
:101A200085044FEA8C0E256A0EF01C0709FA07F7A9
:101A3000BD4325620AFA0CF5B46808EA0404B460F0
:101A40000EF00C0E7468AC437460F46808EA040489
:101A5000F4604FEA9C0853F8285009FA0EF4254028
:101A6000B6F1904F08BF00270ED0964208BF01275D
:101A70000AD01D4FBE4208BF022705D01B4FBE42F1
:101A80000CBF0327052700BF07FA0EF7BD4213D18D
:101A900053F8285025EA040443F82840C0430C6852
:101AA00004400C604C6804404C608C6804408C60BE
:101AB000CC682040C1F80C000CF1010C3BFA0CF092
:101AC0009CD101B0BDE8F08F81B0002A14BF8161C4
:101AD000816201B07047000000040140000400482A
:101AE000080001401810024000080048000C00489F
:101AF00000B599B0022005900121099110200A90AB
:101B000002210C9100200D904FF460110E9105A858
:101B100000F030FF0F2102200091019000214FF4CE
:101B200080600291039004916846022101F0F5F86B
:101B30004FF480400F904FF4805117910FA801F09F
:101B400045FA01F0FCF9DFF8C82CA0FB0221480A95
:101B5000FFF73FFE0420FFF74DFE002200214FF06B
:101B6000FF30FFF7F8FD19B000BD000070B58EB072
:101B700000F03CF9DFF89C0CDFF8484D0168DFF815
:101B8000EC5B41F0010101600122006800F00100FE
:101B90000090002100980B20FFF7DDFD00F096F982
:101BA00000F010FA0020C4F8AC00C4F8B0004FF008
:101BB00080464FF47A70C4F8B400C4F8A8600020DE
:101BC000C4F8B80004F1A80001F0D6FAD4F8A800CF
:101BD000016841F080010160002000900290694698
:101BE00004F1A80001F0F6FD6020039040F2E93115
:101BF0000020049105900790002203A904F1A80099
:101C000001F044FD04F1A800FFF7E1FB05F50060D9
:101C100060650020A065E06543F2FF1020660020AB
:101C20006066A06604F1540001F06AFA06F580606F
:101C3000C4F8E4004FF480560020C4F8E800C4F86B
:101C4000EC004020C4F8F0000020C4F8F40004F1D7
:101C5000E40001F055FA0A960AA904F1E40001F043
:101C600019FB04F1E40001F087FA002007900990C5
:101C700007A904F1E40001F0ADFD6020002100900F
:101C80000191029104910022694604F1E40001F0FF
:101C9000FDFC0422694604F1E40001F0F7FC04F1C4
:101CA000E400FFF794FB002104F1E40001F07EFA68
:101CB000042104F1E40001F079FA0120C4F82401C0
:101CC000C4F820510020C4F8280140F21520C4F8BF
:101CD0002C010020C4F8300104F5907001F010FAD6
:101CE0000A960AA904F5907001F0D4FA04F59070F0
:101CF00001F042FA00200790099007A904F59070BE
:101D000001F068FD602000900A21002001910290FE
:101D100003900490059006900022694604F59070A7
:101D200001F0B4FC04F59070FFF751FB002104F5BD
:101D3000907001F097FC00F005FAD4F86802D4F82E
:101D400064120078D4F87022D4F86C3284F85C0203
:101D50009FED9B1A097884F85D1200EB0120127840
:101D600084F85E2200EE100A1B7884F85F3202EBE2
:101D7000032000EE900ADFF89C0BC4F85C01B8EE7B
:101D8000C00A0020C4F86001F8EEE00A7F2070EE7F
:101D9000C00AC4F86401C4F86801C1EE200AB3EEB9
:101DA0000E1A00EE601AC4ED9D0A84ED9E1A04F529
:101DB000AE7001F093FD04F5AE7001F0B1FDD4F802
:101DC0005C01DFF8544B416841F4007141604FF40D
:101DD000804500F09DFB00F0D0FB2561012001F063
:101DE000C9FD256000F0CBF90EB070BD70B5DFF80D
:101DF000240ADFF8284BDFF8285B86B0016841F43D
:101E0000800101604FF48066026802F4800205924E
:101E10000599016841F400210160026802F4002282
:101E200005920599016841F400310160026802F4ED
:101E3000003205920599016841F480210160026831
:101E400002F48022059200220599016841F4801174
:101E50000160E021006800F480100590059820469C
:101E6000FFF732FE00224FF480612846FFF72CFE78
:101E7000E02000900121002001910290039069462A
:101E80002046FFF7D5FC00200190029003900096B9
:101E900069464FF09040FFF7CBFC4FF48040112192
:101EA0000090019101200021029003912046694693
:101EB000FFF7BEFC012000210190029103910096E2
:101EC00069462846FFF7B4FC06B070BD4FF0A0404D
:101ED00010B5DFF8F04920604FF48030606092B0B8
:101EE0000020A06001202061E0610020606220638A
:101EF000E06006202062012060630820606100200D
:101F0000A061A0632046FEF73FF90820069001215A
:101F10000020079109900C91042040210890119114
:101F20002420002110900E910D910F910B910A9198
:101F3000204606A9FEF770FE0120009001900621C0
:101F40000020039002910490059069462046FEF718
:101F5000C9FC032002210090019120466946FEF74A
:101F6000C1FC042003210090019120466946FEF740
:101F7000B9FC062004210090019120466946FEF735
:101F8000B1FC072005210090019120466946FEF72B
:101F9000A9FC102006210090019120466946FEF719
:101FA000A1FC00212046FEF7C1FB2046FEF71AFCEB
:101FB000062204F190012046FEF731FB12B010BD5D
:101FC0000000A042DFF85C0930B5DFF8F848C4F83B
:101FD00070010020C4F87401C4F87801A7B004F5BA
:101FE000B87001F0D5FC0C2104F5B87001F04EFD7D
:101FF0000A2104F5B87001F06CFD00200790022161
:10200000089107AA04F5B87001F0C4FD0021019100
:1020100002914FF47A500821009003916A460521FD
:1020200004F5B87001F075FD002011901290139026
:102030001490202101201590169100204FF000618E
:102040001790189019901A911B901C901D9011AA2E
:10205000052104F5B87001F0E5FD4FF470450495D5
:1020600004AB0122002104F5B87001F061FE04AB5D
:102070000122012104F5B87001F05AFE049504AB69
:102080000222052104F5B87001F052FE44F62060EA
:102090000090002101916A4604F5B87001F039FD05
:1020A000002011901390002101201291149115909D
:1020B00016911E911F912091219122912391102020
:1020C0004FF480212490259111AA002104F5B870C5
:1020D00001F0A8FD002013901490202101201590FC
:1020E000249111AA012104F5B87001F09BFD002094
:1020F000099080210A9108200B9000210C910D91EC
:102100000E910F91109109AB012204F5B87001F006
:10211000A3FE4FF480704FF480510A900B9109ABED
:102120000222002104F5B87001F096FE6A460121F2
:1021300004F5B87001F0EDFC04F5B870FFF7C4F8D1
:1021400027B030BD10B5DFF8E047DFF8E0072060CA
:102150004FF4165060600020A060E06020610C2009
:1021600060610020A061E06120626062204601F0B1
:10217000A1FF2068016841F02001016010BD10B589
:1021800002F05EF9044602F090F9C830844209DAA0
:1021900002F088F9044602F053F9963C8442B8BF35
:1021A000202003DB202002F09BF9102002F093F99D
:1021B00002F0C0F9044602F0C0F9963C844204DA09
:1021C000BDE81040042002F0BEB902F0B6F90446A2
:1021D00002F0B0F9FA38844204DABDE81040042075
:1021E00002F0B6B910BD10B5DFF8D846D4F8E01249
:1021F000D4F8A4004118D4F8E402401C802814D17B
:10220000C90900EE101AB8EE400AD4ED9D0A94ED0B
:102210009E1A00EE201ABAEE0E0A31EE000ABDEE4A
:10222000C00A84ED9F0A00200021C4F8E402C4F82B
:10223000E012D4F89400D4F8C0124118D4F8C402C3
:10224000C4F8C012401C8028C4F8C4020DD1C909CA
:10225000C4F8C01204F5307004F51F7102F0F3F8F1
:102260000021C4F8C412C4F8C012D4F8C812D4F8BB
:102270009C004118D4F8CC02C4F8C812401C802835
:10228000C4F8CC020BD1C909C4F8C81204F53270E5
:1022900002F01AF90020C4F8CC02C4F8C802D4F83D
:1022A000D012D4F890004118D4F8D402C4F8D01257
:1022B000401C8028C4F8D4020BD1C909C4F8D0123C
:1022C00004F5347002F032F90020C4F8D402C4F8E6
:1022D000D002D4F8D812D4F8A0004118D4F8DC0207
:1022E000C4F8D812401C0828C4F8DC020BD1C90875
:1022F000C4F8D81204F5367002F042F90020C4F890
:10230000DC02C4F8D80204F5AE70BDE810407F21AD
:1023100001F01ABB30B5DFF8FC04DFF814468DB0CD
:10232000016841F4801101600122006800F480100E
:102330000090042100982046FFF7C6FB0420079078
:1023400001210020089109900A9007A92046FFF773
:102350006FFA322001F00EFBDFF8D8454FF0A040B5
:1023600020604FF4803060600020A0600120206178
:10237000E061002060622063E060012020620020B4
:102380006063042060610020A061A0632046FDF727
:10239000FBFE0920012101900291002006210490FA
:1023A00003910590069001A92046FEF79BFA0021B3
:1023B0002046FEF7BBF92046FEF7A1F8012001F008
:1023C000D9FA616D22680A2013685D07FCD5136C89
:1023D0005918401EF8D1DFF86025A1FB022040F219
:1023E0006D71C0088842606503D3202002F0ABF80D
:1023F00002E0202002F0ACF8002060652046FEF7E5
:10240000EEF82046FDF7B8FF04F15800FFF7B0F8EA
:102410000DB030BDDFF8AC04DFF82015C0F8BC12F9
:10242000704730B5DFF89C44D4F8B8023D2881B03D
:1024300038BF00201AD302F0B0F8054602F000F8C9
:10244000D4F8B812D4EDAF0A3C394D43B5FBF0F0E7
:1024500000EE100AB8EE400A20EE200AB2EE041A8E
:1024600020EE011ABDEEC11A11EE100A84F86002C6
:1024700001B094F8600230BD01220421DFF8B004FD
:10248000FFF722BB00B581B0202002F067F840B909
:1024900001B05DF804EB00220421DFF89404FFF79B
:1024A00013BB01B000BD0021DFF8940400F0A4BE0E
:1024B0000021DFF88C0400F079BEDFF80804D0F8C2
:1024C000A810486BC0F57A7080B27047C0F57A707A
:1024D00080B240F2E9318842A8BF4FF47A7002DA44
:1024E000642838BF6420DFF8DC13A1F86202B1F879
:1024F0006202D1F8A81048637047DFF8C803D0F82B
:102500007C0200B27047DFF8BC1381F861027047AB
:1025100030B5DFF8B043D4F870514FF47A504FF42F
:102520002F5181B0C4F88002C4F888126861D4F8D1
:10253000880200EBD07040106862D4F88002401C22
:10254000C5F89400D4F88002401CC5F81401D4F8F2
:10255000800202F03BF8DFF8EC23DFF8EC3302F006
:1025600043F802F013F9C4F88802C5F89C00D4F8C7
:102570008802C5F81C0101B030BD10B50122C02190
:10258000DFF89803DFF83C43FFF79EFA4FF4E021B1
:1025900004F5B87001F097FCD4F87011D4F89002EB
:1025A000C1F89C00C1F81C01D1F8840340F001007F
:1025B000C1F88403D1F8840340F00200C1F8840319
:1025C000D1F8840340F00400C1F8840310BD10B5B5
:1025D000BC4CD4F89002C4F888020022C021DFF875
:1025E0003C03FFF771FA04F1540000F0AEFDD4F89B
:1025F000E4100020886310BDDFF85003D0F8E42019
:1026000041219163D0F87011D0F89022C1F89C203C
:10261000D0F89002C1F81C01704710B50122C0210A
:10262000BE48DFF82843FFF74FFA032104F5B870DE
:1026300001F02FFC04F15400BDE8104000F07ABD19
:10264000C3494FF4806008607047C2494FF480600E
:1026500008607047BD49D1F8E420002050637047FE
:10266000BC48BA4B4FF4806101604122D3F8E4C00A
:10267000CCF8342001607047B44900B5D1F8E400CB
:1026800081B0406BC1F8940238B101F086FF40F28E
:1026900095718842B8BF002000DB012001B000BD69
:1026A0008849AD4BD1F82011CA6A5043A0FB0332D0
:1026B000900948637047A94800787047A749087097
:1026C0007047A748007870479748406F7047964911
:1026D00000204867704794490968CA69130602D503
:1026E0000885012070470020704770B58E4C204649
:1026F00001F014FD02F0DBF9FFF724FD0020606714
:10270000984AA06F401CA0FB0221A067890801EB3A
:102710004103B0EB430017D17F4D4FF480462E614B
:10272000012001F027F92E60A06F0C280CD3BFF315
:102730004F8F8D498D480A6802F4E06202430A60B7
:10274000BFF34F8F00BFFDE770BD774890F8700072
:102750007047754981F870007047734890F87100B0
:102760007047714981F871007047000000400140D6
:10277000F0B581B0754C0068D4F8E812D0F880301C
:1027800004F51372032942F8213026D15FF00003CB
:10279000C3F10300C607154606D56E682F68BE4212
:1027A0003CBF2E606F602D1D40080FD06E682F68F3
:1027B000BE423CBF2E606F606E68AF68B7423CBFE0
:1027C0006F60AE60401E05F10805EFD15B1C032B66
:1027D000DED3D4F85402C4F8B802491C042908BF57
:1027E0000021C4F8E81240F29111D4F8B8028842EE
:1027F0000BD394F8611241B9042001F0D1FEFFF728
:10280000E6FED4F8E4000021416301B0F0BD000011
:10281000986E12831410024070B54C4CD4F8B81264
:10282000D4F8B422501A6FF06303984282B0B8BF54
:10283000184602DB6428C8BF6420C4F89802054625
:10284000D4F89C02C0EB00102818C61000EB1670DC
:1028500000119842B8BF184602DB6428C8BF642044
:10286000C4F89C02D4F8A802D4F89C324543C4F8BA
:10287000A052D4F8AC0243435D19A811C4F88402F5
:10288000C4F8B052C4F8A432D4F8880200EBA515FD
:10289000D4F89002854238BF0546D4F88C02A8428D
:1028A00038BF0546D4F87001C4F88852C0F89C506F
:1028B000D4F88812C0F81C1102F010F9C4F8B40260
:1028C00002B070BD380800200068808CC0B201F0F2
:1028D0007BBF1548B0F87210491C89B20B2903DB85
:1028E000012180F870100021A0F87210204AC16FF9
:1028F000491C914203D3012180F871100021C16766
:10290000D0F88010491CC0F88010416F491C416705
:1029100070470000002C00401804004800040048E4
:102920000008004800740140240B002000480040CB
:10293000000C0048D0130020CDCCCCCCF460F23C8D
:10294000E0080020B81E85EB51B89E3F38080020F3
:1029500018080048280800483E0AD7A36E14002033
:102960006F140020ABAAAAAA0CED00E00400FA053F
:1029700041420F00F0B5044681B02078DFF8FC55E5
:10298000C10740F12B81686800F00C00042807D0D3
:10299000686800F00C0008280FD16868C1030CD5E6
:1029A0002868C0F34040002800F0188160680028C3
:1029B00040F01481012001B0F0BD296821F480317C
:1029C0002960286820F480202860FEF7ADFE0646C6
:1029D0002868C0F34040002800F0F680FEF7A4FE0F
:1029E000801B6528F4D3032001B0F0BD08B9286826
:1029F0000AE0B0F5A02F286806D140F480202860B6
:102A0000296841F4803105E020F48030286029688D
:102A100021F480212960EA6AA068120940EA0212C2
:102A2000EA62606880B1FEF77FFE06462868C0F360
:102A30004040002840F0D280FEF776FE801B6528DB
:102A4000F4D3032001B0F0BDFEF76EFE0646286801
:102A5000C0F34040002800F0C180FEF765FE801BF7
:102A60006528F4D3032001B0F0BD00BFFEF75CFE83
:102A7000801B6528C0F0E280032001B0F0BD206912
:102A8000DFF8FC1490B101220A60FEF74DFE064605
:102A90002868C0F34000002840F0BA80FEF744FEEA
:102AA000801B6528F4D3032001B0F0BD0860FEF759
:102AB0003BFE06462868C0F34000002800F0AF80C7
:102AC000FEF732FE801B6528F4D3032001B0F0BD71
:102AD000C1F88004FEF728FE0646686AC0F340008D
:102AE000002800F0B180FEF71FFE801B6528F4D39C
:102AF000032001B0F0BD00BFFEF716FEC01BB042C0
:102B0000C0F0CF80032001B0F0BD08B9286A09E009
:102B10000528286A06D140F004002862286A40F09F
:102B2000010005E0400840002862286A20F0040007
:102B30002862E06880B1FEF7F7FD0746286AC0F317
:102B40004000002840F0BB80FEF7EEFDC01BB04205
:102B5000F4D3032001B0F0BDFEF7E6FD0746286A76
:102B6000C0F34000002800F0AA80FEF7DDFDC01B86
:102B7000B042F4D3032001B0F0BD00BFFEF7D4FD96
:102B8000C01B6528C0F0AD80032001B0F0BD00BFC0
:102B9000FEF7CAFD001B6528C0F0B680032001B017
:102BA000F0BD00203066FEF7BFFD04462868C0F384
:102BB0004060002800F0AE80FEF7B6FD001B6528DF
:102BC000F4D3032001B0F0BD6068B0F5803F7FF41E
:102BD0000DAF286840F4803028601CE72178880712
:102BE0001DD5686810F00C0F09D0686800F00C0063
:102BF00008287FF444AF6868C1033FF540AF2868F8
:102C0000C0F3400000281CBF206901287FF4D2AE29
:102C10002868616920F0F80040EAC1002860207847
:102C2000010711D5A069DFF8581300283FF450AF11
:102C30000122C1F88024FEF777FD0646686AC0F3DA
:102C4000400000283FF412AF2078410737D5E869EB
:102C5000DFF8307340F08050E861E86900F08050A0
:102C600000900098396841F480713960FEF75CFD8E
:102C700006463868C10507D4FEF756FD801B652857
:102C8000F7D3032001B0F0BD286A40084000286255
:102C900041F28936286A20F004002862FEF744FDDC
:102CA0000746286AC0F3400000287FF425AFE0689B
:102CB00001287FF42AAF286A40F0010038E7E06974
:102CC00040B3696801F00C0108293FF473AE022893
:102CD000DFF8AC627FF465AF00203066FEF724FDBC
:102CE00007462868C0F3406000287FF447AF696852
:102CF000606A21F474110143206A01436960012074
:102D00003066FEF711FD04462868C0F340600028D5
:102D10003FF43EAF002001B0F0BD2DE9F041DFF8F7
:102D20006872DFF85852044638680E4600F0070013
:102D3000B04257D23968C90846EAC10139603868DB
:102D400000F00700B04240F0CB802178880705D51D
:102D50006968A06821F0F001014369602078C1072B
:102D600040F18D806168012903D12868C0F340409B
:102D700004E00229286805D1C0F3406038B9012079
:102D8000BDE8F081C0F34000002800F0A980686829
:102D9000800841EA80016960FEF7C6FC064660686B
:102DA00001280ED1686800F00C00042867D0FEF7F7
:102DB000BBFC801B41F289318842F3D30320BDE87C
:102DC000F081022874D1686800F00C00082856D001
:102DD000FEF7AAFC801B41F289318842F3D303201D
:102DE000BDE8F0812078810705D56968A06821F0E9
:102DF000F001014369602078C10767D56168012946
:102E000003D12868C0F3404004E00229286805D1B6
:102E1000C0F3406030B90120BDE8F081C0F340004C
:102E200000285DD06868800841EA80016960FEF78B
:102E30007BFC8046606801280FD1686800F00C00B8
:102E4000042843D0FEF770FCA0EB080041F2893162
:102E50008842F2D30320BDE8F081022843D168689C
:102E600000F00C00082831D0FEF75EFCA0EB080053
:102E700041F289318842F2D30320BDE8F081207805
:102E8000410705D56968E06821F4E06101436960A4
:102E90002078010706D56868216920F4605040EA6F
:102EA000C1006860002001F037FE0020BDE8F0811D
:102EB000686810F00C0FE2D0FEF736FC801B41F280
:102EC00089318842F4D30320BDE8F0813868C00816
:102ED00046EAC0003860396801F00701B142CED03F
:102EE0000120BDE8F081686810F00C0FEED0FEF70D
:102EF0001BFCA0EB080041F289318842F3D3032088
:102F0000BDE8F08121490A6802F00C00082814D1BC
:102F10000FF29803C2F38340D203185C896A09D583
:102F20000FF298031A4A01F00F01595CB2FBF1F15C
:102F3000484370471749484370471548704700B5E4
:102F400081B0FFF7DFFF11490FF250030968124A01
:102F5000C1F30311595CC840106001B0106800BD96
:102F600000B581B0FFF7EBFF08490FF230020968A6
:102F7000C1F30221515CC84001B000BD0010024005
:102F80000000424200700040002002400410024055
:102F900000127A0000093D00A80B0020000000008C
:102FA00001020304010203040607080902030405E1
:102FB000060708090A0B0C0D0E0F1010010203047E
:102FC00005060708090A0B0C0D0E0F10F0B5044694
:102FD00081B02068DFF81C51C10348D52968DFF8AB
:102FE000186141F080512960286800F080500090FD
:102FF0000098316841F480713160FEF795FB074617
:103000003068C10510D4FEF78FFBC01B6528F7D3CD
:10301000032001B0F0BD00BFFEF786FB801BB84265
:103020001AD3032001B0F0BD6868616800F44070F5
:1030300001F4407188421AD03049686801220A6060
:1030400020F4407000220A606860800709D5FEF70E
:103050006BFB064641F289376868C0F340000028E0
:10306000DAD06968606821F44071014369602078B2
:10307000C10705D56969A068890840EA81016961CD
:103080002078810705D56969E06821F44031014362
:1030900069612078410705D56969206921F44021DB
:1030A000014369612078810605D56969606921F06D
:1030B0001001014369612078010605D52969A069DD
:1030C00021F4F871014329612068C10405D56969BB
:1030D000E06921F48071014369612068410405D5EC
:1030E0006969206A21F4805101436961002001B0BF
:1030F000F0BD00001C10024000700040400442423D
:1031000010B5040001D1012010BD94F8390028B990
:10311000002184F838102046FEF700F9022084F8D8
:103120003900211D206800F087F9012084F839005A
:10313000002010BD0068C16841F00101C160026853
:1031400042F0010202600020704781B00068C1684F
:1031500049084900C16041F21112016A114202BFDF
:10316000016A40F24442114203D103685B085B00EC
:103170000360002001B0704710B5040001D10120A8
:1031800010BD94F8390028B9002184F83810204681
:10319000FEF7B3F8022084F83900211D206800F002
:1031A0004BF9012084F83900002010BD81B000687F
:1031B000012202FA01F1026A8A430262026A1143A1
:1031C0000162DFF8C01088421CBFDFF8BC108842E3
:1031D00007D0DFF8B81088421CBFDFF8B41088426F
:1031E00003D1416C41F400414164026842F00102A4
:1031F0000260002001B0704781B00268136A4FF08E
:10320000010C0CFA01F123EA01011162116A116249
:10321000DFF87020016891421CBFDFF86C209142FA
:1032200007D0DFF8682091421CBFDFF8642091428C
:103230000DD10A6A41F211131A4202BF0A6A40F222
:1032400044431A4203D14A6C22F400424A6441F2D8
:10325000111301680A6A1A4202BF0A6A40F2444323
:103260001A4207D1D1F800C04FEA5C0C4FEA4C0C6F
:10327000C1F800C0012180F83910002001B070476A
:1032800000000000002C01400040014000440140CB
:103290000048014070B490F83820012A08BF02208D
:1032A00000F0C680012380F83830022280F83920EF
:1032B0000368DFF88C239C6814409C600A68002A2D
:1032C00000F09380102A00F09780202A00F09B8065
:1032D000302A00F09F80402A6DD0502A36D0602AD4
:1032E0004ED0702A0CD0B2F5805F03D0B2F5005FEB
:1032F0001BD096E002684F4993680B40936090E0C2
:10330000CA684B6804688968A56825F47F45294325
:103310000B4343EA0223A3600268DFF82813936893
:103320000B4043F0770393607BE0CA684B68046806
:103330008968A56825F47F4529430B4343EA0223A6
:10334000A36001688A6842F4804269E0CA684B68F9
:10335000016818318C688D686D086D008D6024F0EF
:103360000A040E6826F0F00646EA02160E602343B1
:103370008B6001688A6822F0700242F057024FE0C9
:10338000CA684B68016818318C6824F010048C609E
:103390000C688D6824F4704444EA023425F0A005DA
:1033A0000C6045EA03158D6001688A6822F070029E
:1033B00042F0670234E0CA684B68016818318C68D3
:1033C0008D686D086D008D6024F00A040E6826F08B
:1033D000F00646EA02160E6023438B6001688A6895
:1033E00022F0700242F047021AE001688A6822F077
:1033F000700242F0070213E001688A6822F070024E
:1034000042F017020CE001688A6822F0700242F074
:10341000270205E001688A6822F0700242F0370254
:103420008A60012180F83910002180F838100020CE
:1034300070BC7047F8FFFEFFDFF80CC281B060453A
:1034400003681EBFB0F1804F804A904208D14A689D
:1034500023F070031343604518BFB0F1804F0BD0C9
:103460007A4A90421CBF7A4A904205D0794A9042EB
:103470001CBF794A904203D1CA6823F440731343B6
:10348000036060458A68C2620A6882621CBF704A33
:10349000904205D06F4A90421CBF6F4A904201D1C2
:1034A000096901630121416101B0704770B481B0C5
:1034B000026A654E520852000262056A43688469D6
:1034C000664A14400A6814438A6825F002051543C9
:1034D000B0421CBF5E4A904205D05E4A90421CBF7B
:1034E0005D4A90420CD1CA6825F008051543B042E8
:1034F0001FBF574EB042574EB04225F0040502D0D0
:10350000554A904205D14A6923F4407313438A69AE
:1035100013434360846149684163056201B070BC34
:10352000704770B4026A484E22F010020262046AC8
:10353000456883694A4A13400A6843EA02238A6855
:1035400024F02004B04244EA021407D1CA6824F0EF
:10355000800444EA021424F0400407E03C4EB042E8
:103560001FBF3C4A90423C4A904206D14E698A694C
:1035700025F44065164345EA860545608361496840
:103580008163046270BC704770B4026A2E4E22F4EC
:1035900080720262046A4568C369304A13400A684F
:1035A00013438A6824F40074B04244EA022407D129
:1035B000CA6824F4006444EA022424F4806407E026
:1035C000234EB0421FBF234A9042234A904206D165
:1035D0004E698A6925F44055164345EA061545604B
:1035E000C3614968C163046270BC704770B4026A09
:1035F000154E22F480520262056A4368C469184A73
:1036000014400A6844EA02248A68B04225F400554E
:103610001CBF0F4EB04245EA023505D00D4A90421C
:103620001CBF0D4A904204D14A6923F4804343EA07
:1036300082134360C46149680164056270BC7047CD
:103640008800FEFF88FFFEFF002C014000040040C0
:103650000040014000440140004801408CFFFEFF53
:10366000FF8CFFFE0068042202FA01F1026A8A431D
:103670000262026A11430162416C41F400414164FB
:10368000026842F0010202600020704730B5044633
:1036900081B094F8380001280D4608BF022000F0E0
:1036A0009680012184F838100220142A84F8390009
:1036B00000F28780DFE802F00B8585851F85858510
:1036C00034858585488585855D858585710020687B
:1036D0002946FFF7EBFE2068816941F0080181610E
:1036E0002068816921F00401816121688A69286963
:1036F00002438A6165E020682946FFF712FF2068CF
:10370000816941F4006181612068816921F48061EF
:103710008161206881692A6941EA0221816150E062
:1037200020682946FFF730FF2068C16941F0080191
:10373000C1612068C16921F00401C1612168CA69C1
:1037400028690243CA613CE020682946FFF74EFF22
:103750002068C16941F40061C1612068C16921F438
:103760008061C1612068C1692A6941EA0221C161A1
:1037700027E02068294600F051F82068416D41F0AB
:10378000080141652068416D21F00401416521680F
:103790004A6D286902434A6513E02068294600F013
:1037A00066F82068416D41F4006141652068416D13
:1037B00021F4806141652068416D2A6941EA022156
:1037C0004165012084F83900002084F8380001B0F8
:1037D00030BD000030B490F83820012A08BF022024
:1037E0001AD0012380F83830364A03685C689D6837
:1037F000934203D14A6824F4700414438A68096828
:1038000024F0700425F080050C4315435C609D6036
:10381000002180F83810002030BC704770B4026A74
:10382000284E22F480320262056A4368446D264ABB
:1038300014400A6814438A68B04225F400351CBF5E
:10384000224EB04245EA024505D0214A90421CBFB3
:10385000204A904204D14A6923F4803343EA022388
:103860004360446549688165056270BC704770B407
:10387000026A144E22F480120262056A4368446DA3
:10388000154A14400A6844EA02248A68B04225F4C2
:1038900000151CBF0D4EB04245EA025505D00C4A3A
:1038A00090421CBF0B4A904204D14A6923F4802302
:1038B00043EA8223436044654968C165056270BC80
:1038C00070470000002C01408FFFFEFF00400140C8
:1038D0000044014000480140FF8FFFFE10B5040086
:1038E00001D1012010BD607C20B900212174204647
:1038F000FDF7E3FD0220607421684A68A3686068F0
:10390000520A034343EA42224A6021680A68E06897
:10391000D20940EAC2120A6001206074002010BD82
:10392000017C012901D10220704701220274022189
:10393000417401680A6842F080020A600121417402
:103940000021017400207047027C012A01D102206D
:103950007047012303740222427402681368DB0972
:1039600041EAC3111160012141740021017400205A
:103970007047000011B581B0FDF7D6FE4FEA000494
:10398000FDF7D2FE0199001B8842F9D302B010BDA9
:1039900010B5040082B008BF012075D0022084F861
:1039A000C1000020C4F8C400C4F8C800C4F8CC00AA
:1039B000C4F8D000C4F8D400C4F8D800207AC107F5
:1039C0001CD52168DFF8C40181420AD1DFF8C001AB
:1039D000026842F000520260006800F0005000905F
:1039E0000098206801682269636921F4704102F43B
:1039F0004042114303F44053194301602046FDF750
:103A000052FC207A810708D520680168E26821F419
:103A1000407102F4407211430160012084F8C1003A
:103A2000002084F8C000A061E06120626062A062B2
:103A300020636063A063E06320646064E0642065E9
:103A40006065A065E0652066A066E0662067606747
:103A5000A067E067C4F88400C4F88800C4F88C004C
:103A6000C4F89000C4F89400C4F89800C4F8A0000A
:103A7000C4F8A400C4F8A800C4F8AC00C4F8B000AE
:103A8000C4F8B400C4F8BC0002B010BD90F8C02067
:103A9000012A01D102207047012380F8C0300222A0
:103AA00080F8C12011F1010F0068D0F8CC2307D1B4
:103AB00022F0020141F00101C0F8CC130020704750
:103AC00022F00D02114341F00201C0F8CC13002096
:103AD000704770B505460C46FDF726FE0646286879
:103AE000D0F88813C8030DD414F1010FF7D024B116
:103AF000FDF71AFE801B8442F1D2072085F8C10031
:103B0000032070BD012085F8C100002085F8C000A9
:103B100070BD70B490F8C130022B08BF022032D0C3
:103B2000022480F8C1400529D368946805680ED145
:103B30002968C90844EAC10424F0180423432B600F
:103B400003681168596151680268916117E005EBDB
:103B5000C115D5F88060F60844EAC60424F01804BC
:103B60002343C5F880300468136804EBC114C4F81B
:103B700094300368526803EBC111C1F89820012109
:103B800080F8C110002070BC704700000074014034
:103B90001810024010B490F8C130022B1ABF90F8F0
:103BA000C040012C02203AD0012380F8C030491EC9
:103BB000022380F8C13007290468D4F8803324D860
:103BC000DFE801F0040C23142323231C116852683E
:103BD000C4F8BC23090C61F3124316E01168526863
:103BE000C4F8C023090C61F3D5430EE01168526894
:103BF000C4F8C423090C61F3985306E011685268B5
:103C0000C4F8C823090C61F35B630168C1F8803311
:103C1000012280F8C120002180F8C010002010BCD3
:103C200070470000F0B5044681B094F8C1000D461D
:103C300002281ABF94F8C01001290220164675D038
:103C4000012084F8C0000220052D84F8C10029D18C
:103C500023681F68D3F8A023F06AB16922F4803288
:103C60000243706927F02007074327F400670F43DA
:103C7000F069316A27F48067074327F0C0670F4374
:103C8000706AB16A27F00067074327F0404747EAA8
:103C90008107306B27F0005707431F602068C0F88A
:103CA000A02303E02946204600F026F9C5EBC50114
:103CB00004EB810031680162052D71684162B168D1
:103CC0008162F168C1623169016329D8DFE805F0DA
:103CD0001B150F0903212068D0F8841341F020013F
:103CE0001CE02068D0F8841341F0100116E0206831
:103CF000D0F8841341F0080110E02068D0F8841354
:103D000041F004010AE02068D0F8841341F0020178
:103D100004E02068D0F8841341F00101C0F8841356
:103D2000012084F8C100002084F8C00001B0F0BD7B
:103D300070B481B090F8C140022C1ABF90F8C05006
:103D4000012D02205ED0012480F8C0400224052904
:103D500080F8C14018D1521E072A4CD8DFE802F083
:103D600004084B0C4B4B4B1002681968D16142E0C0
:103D70001968036859623EE00268196891623AE086
:103D800019680368D96236E0521E072A33D8DFE883
:103D900002F0040B323C3232323E04681A6804EB03
:103DA000C111C1F89C2026E005681A68CC012544A1
:103DB000C5F8A4205A68F2B1026802F18005803289
:103DC0002D5925F440551551056805F18002165905
:103DD0005A68164305F1800216515A68B2F5005F21
:103DE00033D05C68B4F5405F05D19A68036803EB93
:103DF000C111C1F8A820012280F8C120002180F85B
:103E0000C010002001B070BC70471A68EEE705686A
:103E10001A68CC012544C5F8AC205A68002AEAD0BB
:103E2000026802F1800580322D5925F44045155174
:103E3000026802F1800580322D595E6845EA8605E8
:103E400015515A68B2F5005FCBD102689B6802EB4E
:103E5000C111C1F89C30CEE730B5044681B094F86A
:103E6000C100022813D094F8C000012808BF022026
:103E70000DD0012584F8C050022084F8C1002046EE
:103E800000F0C8F884F8C150002084F8C00001B0E8
:103E900030BD90F8C020012A01D1022070470123D3
:103EA00080F8C030022280F8C1200268D2F8943332
:103EB0001943C2F89413012180F8C110002180F841
:103EC000C0100020704790F8C020012A01D10220C4
:103ED0007047012380F8C030022280F8C1200268B8
:103EE000136819431160012180F8C110002180F886
:103EF000C0100020704700002DE9F041046804EB79
:103F0000C118D8F8800020F07040C8F88000D8F8B8
:103F10008050D8F8E860D8F8E470D8F8D400D4F825
:103F2000A0E35369906925F020051D4325F4006541
:103F30000543D369106A25F480651D4325F0C065EB
:103F40000543536A906A25F000651D4325F07045CE
:103F5000136B054325F40035B3F1005F08BF45F44A
:103F60000035506B136D25F04005054325F4802581
:103F70001D43936C25F0FC751D43DFF834311E4062
:103F800092F8383003F01F031E43D36B1E4318B959
:103F9000136C27F480771F43536CB3F5606F18BF21
:103FA000B3F5F05F01D1402802D127F4F0571F4349
:103FB000D06C042921D8DFE801F003090F151B009C
:103FC000D16A2EF4003343EA410E16E0D16A2EF492
:103FD000802343EA810E10E0D16A2EF4002343EAE5
:103FE000C10E0AE0D16A2EF4801343EA011E04E0F8
:103FF000D16A2EF4001343EA411EC8F88050C8F875
:10400000E860C8F8E470C8F8D400C4F8A0E3BDE8DC
:10401000F0810000F0B481B0006800EBC111012A0A
:10402000D1F8E450D1F8B8404FF0FF3614D0022A4E
:104030001AD0042A10D0082A16D0102A0CD0202A10
:1040400012D0402A08D0802A0ED0B2F5807F03D04B
:10405000B2F5007F08D00EE05868C1F8BC00002619
:104060009868C1F8C00006E05868C1F8C40010267E
:104070009868C1F8C800FE20B04085431F68D86822
:104080001A69074358691743074398690743B740BC
:104090003D43082A08BF14F0022F03D1D86900FA63
:1040A00006F63543C1F8E45001B0F0BC704700009B
:1040B000E0FFFF7F10B5040015D094F8690028B91F
:1040C000002184F868102046FDF7CDF9022084F81D
:1040D000690020680168490849000160204600F035
:1040E0003DF8012801D1012010BD606A10B12046C1
:1040F00000F0F4F82068416821F4904141602068A4
:10410000816821F02A0181602068016841F0010185
:1041100001602046BDE8104000F044B910B504002D
:1041200001D1012010BD022084F8690020680168D7
:104130004908490001600020226810602168486039
:1041400022689060204600F0FBFC0020E06684F8C6
:10415000690084F8680010BD0000000070B50446D6
:1041600082B0236856481E680640A068064320694E
:10417000064360690643E06906431E6010215E68DD
:10418000E06826F4405606435E6000229E68A069FF
:1041900026F430660643206A0025064349489E609F
:1041A00083420BD14848066806F00306032E2DD83B
:1041B000DFE806F029152B02022127E0434883425D
:1041C0000FD14148066816F440361CD0B6F5803F42
:1041D00005D0B6F5003F18D0B6F5403F11E00421F8
:1041E00014E03B48834211D13748066816F4402654
:1041F00009D0B6F5802FF2D0B6F5002F05D0B6F570
:10420000402FD9D002E0002100E00821E069B0F59C
:10421000004F2DD108291FD8DFE801F0051E0C1E24
:10422000111E1E1E1800FEF79BFE61684000B0FBC9
:10423000F1F212E061682748B0FBF1F20DE0FEF701
:1042400061FE61684000B0FBF1F206E061684FF486
:104250008030B0FBF1F200E001254FF6F071114023
:10426000C2F3420001432068C160284602B070BD1D
:10427000082920D8DFE801F0051F081F0A1F1F1FAB
:104280001500FEF76DFE03E013480CE0FEF73AFE62
:104290006168B0FBF1F0216880B2C86002B02846C6
:1042A00070BD4FF400406168B0FBF1F080B2D8609F
:1042B00002B0284670BD0125284602B070BD00003E
:1042C000F369FFEF00380140301002400044004025
:1042D000004800400024F40000127A0090F82410F6
:1042E000CA0706D502685368816A23F400330B437A
:1042F000536090F824108A0706D502685368C16A93
:1043000023F480330B43536090F824104A0706D5FA
:1043100002685368016B23F480230B43536090F8C9
:1043200024100A0706D502685368416B23F4004342
:104330000B43536090F82410CA0606D502689368B0
:10434000816B23F480530B43936090F824108A060A
:1043500006D502689368C16B23F400530B43936046
:1043600090F824104A0610D502685368016C23F4B3
:1043700080130B435360016CB1F5801F05D1536866
:10438000416C23F4C0030B43536090F824100A06D9
:1043900006D501684A68806C22F4002202434A6014
:1043A0007047000070B504460020E0662068016890
:1043B0000A0730D5FDF7B8F9054640F2E93620681E
:1043C000C169880227D4FDF7AFF9401BB042F6D38C
:1043D00005E000BFFDF7A8F9801BA84224D32068A0
:1043E000016821F0800101602068026822F020024B
:1043F00002602068016821F4807101602068816892
:10440000490849008160012084F86900002084F88F
:104410006800032070BD206801684A0708D5FDF7D1
:1044200083F9064640F2E9352068C1694802D1D5D2
:10443000012084F86900002084F8680070BD000045
:104440002F4800897047F0B581B02D4E006830814B
:10445000B0880F6800F0BAF8193F04460D46384698
:1044600000F070FB274A284B00F0BEF822462B468E
:1044700000F07AFB00F08AF9F080308800F0A6F8AE
:1044800004460D46384600F05DFB204A204B00F004
:10449000ABF822462B4600F067FB00F077F97080FE
:1044A00001B0F0BD1B48008870471548C0887047B0
:1044B000194800887047124840887047174800889C
:1044C0007047174800887047006815490880704792
:1044D00014480088704714490A78104308707047E0
:1044E00011490A7822EA00000870704701460E4818
:1044F00002781140481E8041C043C00F7047000041
:10450000B00B0020FA7E6ABC741317C0E3A59BC4ED
:1045100020B00BC0AC0B0020AE0B0020BC0B002069
:1045200068140020BA0B0020C20B0020006810495C
:10453000088070470F48008870470D480088704712
:104540000D48008870470D490A781043087070477D
:104550000A490A7822EA00000870704701460748B5
:1045600002781140481E8041C043C00F70470000D0
:104570006A140020BE0B0020C00B0020C30B0020DB
:1045800011490068488040F6D9624888904203DBB0
:104590000A7842F002020A7070470B484088704760
:1045A00009490A7810430870704707490A7822EAD7
:1045B0000000087070470146034802781140481E09
:1045C0008041C043C00F704760140020014648B1CD
:1045D000B0FA80F18840C91CC1F58461090501EB7E
:1045E000D021400570470000B0B581EA030C0CF003
:1045F000004C40F2FF7515EA11541DBF15EA135720
:10460000AC42AF4239E0E41923EA455343F4801346
:10461000C90241F0004141EA505EC7021100A7FB08
:10462000020200284FF00000EEFB01204FF00001D5
:10463000E3FB072118BF42F0010240180021494165
:10464000E3FB0E01A4F580640F0302D25200404147
:10465000494154F101046CDD470872F1004250F108
:10466000000051EB0451A1F580115CBF41EA0C013F
:10467000B0BD4CEA05510020B0BD05EA1357AC426D
:1046800014BFAF4241E050EA410E1CBF52EA430E54
:1046900002E061460020B0BD24423C441BD15FEAE9
:1046A000070EF6D0090302BF01460020AEF1140E3A
:1046B000B1FA81F7AEEB070401FA07FE0C37C7F138
:1046C000200100FA07F7C8404EEA000E23EA4553DE
:1046D00043F48013A2E733F00043B3FA83F704BF37
:1046E000B2FA82FE77440B3FE41BB7F1200E2FBFD6
:1046F00002FA0EF3BB40C7F1200E22FA0EFE38BFBD
:1047000043EA0E03BA40641C82E750EA410E14BF2C
:1047100052EA430E6FF000014FF4001717EB430FFE
:104720008ABF194617EB410FB5E74CEA0551002047
:10473000B0BDD4F10104B4F120070FDAC4F12007B1
:10474000520828BF42F0010210FA07F501FA07F7F4
:10475000E1BF2A43E0403843E1400FE0352C98DCCC
:10476000C7F1200452EA400220FA07F218BF42F0D3
:10477000010231FA07F0A1400A43002172F1004220
:1047800050F1000051EB0C01B0BD0000C1F30A5321
:1047900040F2FE329B1A14DDD3F120034FEAE1729E
:1047A00008DDC90241EA505141F00040D84080186C
:1047B0005040704703F2E13010B1D24382F0004024
:1047C0007047002070470000C249B1F8EA238854BE
:1047D000B1F8EA03401CA1F8EA0380B2B0F57A7F91
:1047E000A4BF0020A1F8EA03B1F8E803B1F8EA2376
:1047F000824238BF02F57A72101AA1F8EC037047B2
:1048000010B500F021F8B34CB4F8DC07D8B1B4F817
:10481000D817214491F8F003FDF75DFF98B1B4F883
:10482000DC07AD4A411EA4F8DC174FF47A70B4F8E7
:10483000D817491C81FB0232921102EBD27200FBA5
:104840001211A4F8D81710BDA248B0F8EC33132BFE
:1048500000DC7047F0B481B0B0F8E813455C4C1C44
:10486000AB2D4FF47A7240F086809B4E84FB067627
:10487000B61106EBD67602FB1644045DAB2C6DD167
:1048800001F11303944D83FB0565AD1105EBD5755F
:1048900002FB1533C35CBA2B7AD101F112038E4CA3
:1048A00083FB0454A41104EBD47402FB1433C35CE3
:1048B000BA2B6DD100235C18874D84FB0565AD11C3
:1048C00005EBD57502FB154400F5FF65045DEC545E
:1048D0005B1C5C18804D84FB0565AD1105EBD5753F
:1048E00002FB154400F5FF65045DEC545B1C5C188D
:1048F000794D84FB0565AD1105EBD57502FB1544BB
:1049000000F5FF65045DEC545B1C5C18724D84FB84
:104910000565AD1105EBD57502FB154400F5FF6586
:10492000045DEC545B1C132BC5DD012380F8F437C8
:104930001431694B81FB03439B1103EBD37302FBDF
:104940001311A0F8E813B0F8E823B0F8EA13914285
:104950003ABF01F57A71891A891A17E0891C5E4CF1
:1049600081FB0454A41104EBD47402FB1411A0F8CD
:10497000E813991E0AE0584984FB0151891101EBA3
:10498000D17102FB1144A0F8E843591EA0F8EC13C2
:1049900001B0F0BC70474F4981F8F40770474D48AB
:1049A00090F8F40770474B49084490F8F8077047AF
:1049B000484A104480F8E01770470000F0B4014600
:1049C0000129444A0CD1AB2082F8E00782F8E107C4
:1049D000B12082F8E207BA2082F8F20782F8F307E2
:1049E00002F5FC645FF005004FF47A73B2F8DA77F1
:1049F00014F8015B02F57C76F555B2F8DA57364EBD
:104A00006D1C85FB0676B61106EBD67603FB1655B4
:104A1000A2F8DA5702F57C76B2F8DA7714F8015B7F
:104A2000F5552D4EB2F8DA576D1C85FB0676B6119A
:104A300006EBD67603FB1655A2F8DA5702F57C761C
:104A4000B2F8DA7714F8015BF555234EB2F8DA576D
:104A50006D1C85FB0676B61106EBD67603FB165564
:104A6000A2F8DA5702F57C76B2F8DA7714F8015B2F
:104A7000F555194EB2F8DA576D1C85FB0676B6115E
:104A800006EBD67603FB1655401EA2F8DA57ADD1D9
:104A9000B2F8D807B2F8DA3782F8F517834238BF90
:104AA00003F57A73181AA2F8DC07F0BC70470948BE
:104AB0000021A0F8E813A0F8EA13A0F8EC13A0F87E
:104AC000D817A0F8DA17A0F8DC1780F8F41780F8E8
:104AD000F5177047C40B0020D34D62100C480068D6
:104AE00070470B49086070470A490A7810430870FC
:104AF000704708490A7822EA0000087070470146AA
:104B0000044802781140481E8041C043C00F7047DE
:104B1000000000206D14002010B50446FEF70FFAC7
:104B2000064AA0FB0221480AFCF753FE0022214658
:104B30004FF0FF30FCF70FFE002010BD986E12837F
:104B400070470000C11768B14840401AB0FA80F2BF
:104B50009040D21CC907C2F5846241EA025202EBBE
:104B6000D02140057047000070B44FF0004591EA35
:104B7000030F40F1B5806B40841A71EB030604D239
:104B80006E40001BB141121973414FF4001C1CEB25
:104B9000410F34BF7CEB430682E00C0DA4EB1356AF
:104BA000362E7BDC012E45EAC32341DC43EA525317
:104BB00012BFD20292025B08240545EAC12141EAF4
:104BC0005051D2EBC020994125D407D1B0FA80F6DC
:104BD00010FA06F162D00020203608E0B1FA81F622
:104BE000B140C6F1200220FA02F21143B0404FEA70
:104BF000F474B4EB465434F001064FEA74040AD856
:104C0000D6F50016760D04F00044F04061FA06F285
:104C10005040F1404840C00A40EA415021F0004174
:104C200028BF5FEA500550F1000044EBD12135E088
:104C3000DB0A45EAC121C90AB6F120050EDD42EAC8
:104C40000242120CC5F1200603FA06F6EB4042EAD6
:104C500006056D42984161F100010DE062FA06F52A
:104C6000F240554063FA06FC82EA0C02F3405A40D7
:104C70006D42904161EB030111F4801F05D1641E68
:104C8000620502D06D004041494121F48011430882
:104C900075F1004350F1000041EB045170BC7047C6
:104CA0001CEB410F15D223F0004352EA43060BD010
:104CB0004FEA4C0CBCEB410F04D80C0D661E342E91
:104CC000B7DDEBE7801A994150EA410608BF0021A1
:104CD000E4E708BF1CEB430F28BF6FF00001DDE7DE
:104CE000841A71EB030603D2001BB1411219734100
:104CF0004FF4001C1CEB410F34BF7CEB430442E03B
:104D00000C0DA4EB1356352E4FDC45EAC323DB0A0A
:104D100045EAC121C912B6F120050DDD63FA05F699
:104D2000EB4086EA0305124218BF45F00105C018A2
:104D300051F100010CD213E062FA06F5F240554041
:104D4000F3415A40B340F3405A408018594107D3C9
:104D500049085FEA30005FEA350528BF45F00105E4
:104D600001F58011420875F1004250F1000041EB5D
:104D700004514E0016F5001F70BC38BF704700206C
:104D8000090D090570471CEB410F10D252EA43068A
:104D90000BD0BCEB410F05D80C0DAB43661E342E77
:104DA000B6DD02E0AB438018594170BC704770BC5F
:104DB000704700007047DFF80C0800B500218182C1
:104DC000C17181B0FDF703FC01B05DF804EBFDF7A4
:104DD00041BC10B52020FFF789FB78B10820FFF710
:104DE00085FB58B9FDF708FC0120FFF7D9FB01202E
:104DF00000F00FFC0420FFF773FB09E0FDF7E7FB71
:104E0000FDF72EFC0120FFF7D0FB012000F0FCFB9A
:104E1000DFF8B0470120E071FCF786FCA0610120BB
:104E2000FDF771FBDFF8A017202008600321217037
:104E300010BD30B581B00220FFF761FEDFF8844776
:104E4000617BA073884204D00120E073FCF76CFC06
:104E5000E064A07B6073E07B01281FD1FCF764FC59
:104E6000E16C01F5FA71884218D10020E07302204C
:104E7000FFF745FE40B16920FFF733FE012000F047
:104E8000CEFB40B1142007E09620FFF72AFE012058
:104E900000F0C5FB10B10220FDF702FCE07901280B
:104EA00018D1FCF741FCA169401A642807D10420FD
:104EB000FFF781FB70B9FDF7B0FB012008E0FCF7BC
:104EC00033FCA169401AB0F5FA7F03D90020E071E4
:104ED000FDF719FBFDF7A5FAFFF7B2FA0546FDF756
:104EE000A0FA00EB8001C800DFF8E02680FB023268
:104EF000921002EBD2725519FFF7DAFA854219DAED
:104F0000FDF723FC012815D10020FDF722FCA08A23
:104F1000401CA08280B264280CD10820FFF7DBFA85
:104F2000FDF755FBFDF79CFB0120FFF73EFB012041
:104F300000F06AFB0220FFF73EFB48B1FDF747FB9C
:104F4000FDF78EFB0120FFF730FB012000F05CFB3A
:104F50000420FFF730FB58B1FDF739FBFDF77AFB72
:104F60000120FFF722FB012000F053FB04202070FA
:104F700001B030BD00B581B0FDF729FBFDF76AFB3C
:104F80000120FFF712FB012000F043FB0220FFF796
:104F90000CFB0420FFF709FB0120FFF7AAFDDFF857
:104FA00024160120087001B000BDDFF81816032098
:104FB0004870704700B581B00020FDF787FA01B056
:104FC0005DF804EBFDF76FBA10B5FDF75BFADFF89B
:104FD000F4450220207300F0BDFB0020FDF776FAB7
:104FE0000320607010BD2DE9F04182B0FDF7ADFBEC
:104FF000012840F085800020FDF7ABFB2020FFF763
:1050000075FA00286CD00420FFF7A8FA002867D0B2
:10501000FDF74EFADFF8AC45207B022822D11020A4
:10502000FFF75EFA0820FFF75BFAFFF74AFA40F253
:105030002D11884207DB1020FFF752FA0420FFF7FA
:105040004FFA00202073FDF738FA0546FFF739FACA
:105050000646FFF7F5F90746FFF73AFA8046FFF7ED
:105060002AFA1AE000BBFFF72CFA0546FFF730FAE0
:10507000854204D2022020730420FFF72CFAFDF7AA
:105080001CFA0546FFF71DFA0646FFF7D9F9074651
:10509000FFF714FA8046FFF708FA009533463A46C0
:1050A000414600F0C7FAE082FDF757FB012811D115
:1050B0000020FDF756FBFFF740FA0546FFF740FAE0
:1050C000B435854204DBE08A40F22721884201D2D0
:1050D00000F040FBE08A02B0BDE8F041FDF7F6B910
:1050E000DFF8E00403210173042141700020FDF783
:1050F000EDF9FDF7D8F902B0BDE8F04100F02ABBA8
:1051000002B0BDE8F08100B581B0FDF7B5F9FDF75B
:10511000CAF9DFF8B0140220487001B000BD00B534
:1051200081B0FDF7E2FADFF89C140120887001B02D
:1051300000BD30B581B0FDF7C7FADFF89414DFF891
:105140008454884224BF0020A870FFF759FBFFF762
:1051500026FC012840F0D281FDF711F8FDF7B7FADF
:105160000020FFF718FC0220FFF71DFCA12840F0EB
:105170009F800320FFF717FCF0B9FDF79FFA02208C
:10518000FFF7B7FCFDF723FAFDF764FA012000F002
:1051900040FA0120FFF709FADFF82C1420200861FB
:1051A00080210320FFF704FC287A00F0FD0040F086
:1051B0000100287201B030BD0120FDF77FFA032005
:1051C000FFF7F1FB642831DA0220FFF78DFC0320A2
:1051D000FFF7E9FB48B10320FFF7E5FB1A2804DAE3
:1051E0006520FFF77EFC99211CE00320FFF7DBFB25
:1051F0001A2809DB0320FFF7D6FB332804DA7520D1
:10520000FFF76FFCB2210DE00320FFF7CCFB332842
:105210001EDB0320FFF7C7FB4C2819DA8520FFF7B8
:1052200060FCCB210320FFF7C3FB11E00320FFF755
:10523000BAFB64280CD1E4210320FFF7B9FB02205C
:10524000FFF757FCDFF8801320200860FFF7C1FD4F
:105250000320FFF7A8FB642814DD0320FFF7A3FB5E
:1052600097280FDAFDF7B3F9FDF7FAF9012000F0FE
:10527000CBF90120FFF799F9287A00F0FE0040F001
:10528000020028720320FFF78EFB9728C0F23681B8
:10529000FDF7B2F9FDF7DEF9012000F0BAF90120BF
:1052A000FFF77EF9287A00F0FE00287201B030BDC9
:1052B000B1210220FFF77CFBFCF761FF0120FFF723
:1052C0001EFC0028E87A03D001280AD1642102E0FC
:1052D000012806D100210320FFF76AFBE87A401C71
:1052E000E8720220FFF767F918B90420FFF763F9A5
:1052F00018B1287A40F0800002E0287A00F07F00A0
:1053000028722020FFF72AF9297A002814BF41F0DB
:10531000200101F0DF0129720420FFF71FF9297A2B
:10532000002814BF41F0080101F0F70129720120A3
:10533000FFF7E5FBB8B12020FFF7D8F848B101200E
:10534000FFF739F998B1287A00F0FD0040F001002C
:105350000CE0FDF791F90028287A05D000F0FE0056
:1053600040F0020002E0287A00F0FC002872297A5E
:105370000420FFF71DFBFDF7C0F8697A5128ACBF88
:1053800041F0800101F07F0169720520697AFFF721
:105390000FFB2020FFF7AAF80028A87A14BF40F0DE
:1053A000010000F0FE00A8726879032806D1A97AEE
:1053B00001F0DF0141F01001A97210E02879032803
:1053C00009D10120FFF7F7F828B1A87A00F0EF0023
:1053D00040F0200002E0A87A00F0CF00A872A97A7D
:1053E0000620FFF7E5FA0120FFF789FB20B3012033
:1053F000FFF7E1F80446012000F011F904431BD047
:10540000744C2068FFF7E2F8734A744BFFF7ECF82E
:10541000FFF7BCF9C1B20C20FFF7CAFA7048008848
:10542000FFF7D4F86F4A704BFFF7DEF8FFF7AEF9DD
:10543000C1B20D20FFF7BCFA287801280FD1FFF781
:1054400040F848F2E8014843684A80FB02320244CF
:10545000D11401EBD17141F08001C9B20AE0012001
:10546000FFF74DFB48B10120FFF7A5F828B1FCF785
:10547000D8FF01460E20FFF79BFAFEF7E1FFFFF78A
:10548000A5F85B4A5B4BFFF7AFF8FFF77FF9C1B2B6
:105490000F20FFF78DFA2878012821D1FEF7D0FFE1
:1054A0000446FFF70EF84443FFF747F894FBF0F08B
:1054B000FFF748FB504A514BFFF796F8FFF766F9A4
:1054C000C1B21020FFF774FAFFF737F8FFF77EF844
:1054D0004B4A4C4BFFF788F8FFF758F9C1B204E08C
:1054E00000211020FFF764FA00211120FFF760FA75
:1054F00001B0BDE830400120FFF760BA01B030BD17
:1055000010B5304C207904EB8001CA69904760796E
:1055100004EB80010A6B9047A07904EB80014A6C90
:105520009047FDF7C8F8012804D00420FFF716F8CB
:1055300018B90120FFF7D8FA02E00120FFF7D9FAE5
:105540000120FFF7DCFA217C6074884206D001203C
:1055500060702070A074FCF7E7F82065607C207410
:10556000A07C01280ED1FCF7DFF8216D6431884260
:1055700008D10020A074607C002819BF022121708E
:10558000022161702079032806D1FDF79AF80128DD
:1055900004BF0220FFF7A8FAFCF7F1FD2020FEF778
:1055A000A5FF10B9FDF751F805E0012000F037F82C
:1055B00008B9FDF745F82078207160786071A0780F
:1055C000A07110BDE40700201804004867666666F5
:1055D000E0930400F00A00209A9999999999B93FAB
:1055E00062140020B37BF2B0506B8A3FA1A0A0A050
:1055F00039B4C876BE9FAA3FA167B3EA73B5A53F89
:10560000C976BE9F1A2FAD3F09490A78104308702A
:10561000704707490A7822EA00000870704701467F
:10562000034802781140481E8041C043C00F7047B4
:105630006C140020F0B4494C2178042981B000F2A8
:105640008580DFE801F0030A1A276C0000206080E3
:10565000A080E0802081012077E06088984203D21A
:1056600005986380A280E08040F2663120898842FC
:1056700098BF401C06D9022067E0E188208981425A
:1056800005D2401E208101B02089F0BC70476181A5
:1056900003205AE0218904F110060D4626F8153042
:1056A00063891E46AF1B012F0EDD04F1100737F88A
:1056B000166037F81570BE4204D201265B1C667076
:1056C000638101E00023637063891E46771B012F0D
:1056D00014DD04F1100737F8166037F81550AE42A4
:1056E00009D200255B1E65706381002912BF491E27
:1056F000012161700DE00123637002E06378012BEA
:10570000F3D140F26635A94223BF00236370491EDE
:10571000491C8242218119D3A281042015E0111A6B
:105720000A2903DB218909B1491E2181811A0A292D
:1057300006DB218940F2663399423CBF491C218136
:1057400002F59672904201DB00202070208901B0A2
:10575000F0BC704701490020087070470400002029
:1057600000B581B000F034F801B05DF804EBFCF74F
:105770005DB8704710B5124C606C40F40050606426
:105780002046FCF7F5FF21686020086010BD0D4839
:105790000168CA68D30704D56FF001030B61FDF7F8
:1057A0003BB8704708480168CA69910648BFFDF7D1
:1057B0008BB8704705490A686FF001009060704728
:1057C000380800208C080020240B002094090020B9
:1057D00002480168491C0160704700BF6414002042
:1057E0001649174AD1F8800040F47000C1F88000D3
:1057F000106840F001001060536812480340536085
:10580000D2F800C0104800EA0C0CC2F800C01068C2
:1058100020F480201060536823F4FE035360D06AA4
:1058200000090001D062136B084803401363002095
:1058300090604FF0006008607047000008ED00E0E5
:10584000001002400CC07FF8FFFFF6FECCFC00FF0A
:1058500010B500F029F8FCF74BF91048104B01681F
:1058600001221A604EF66024FCF754FDFCF77EF925
:105870000120FEF77FF80B480121017002214170E1
:1058800001218170FCF7AFFC641EFBD1FCF7C2FD67
:10589000FCF7A9FCFFF734FEFAE7000024100240F1
:1058A000E0044242E407002000B5084881B00168E6
:1058B00041F0100101600320FBF740FF0020FFF7DB
:1058C0002BF9FBF773FC002001B000BD0020024063
:1058D00019E050F8042BD30744BFA9F101039A182B
:1058E000091F0023042942F8043BF9D25FEA817CB6
:1058F000134604D54FF0000CA2F800C09B1CC9074A
:1059000044BF0021197050F8041B0029E1D17047F1
:1059100030B5016884684218416802EB5103C90739
:105920000BD54C4409E012F9011B12F8015B002968
:1059300004F8015B05D5491CF9D19A42F3D10C302A
:1059400030BD491EF1D5F8E710B507497944183143
:10595000064C7C44163404E00A68081D114488474C
:105960000146A142F8D110BD2C0000004800000003
:105970004EF68851CEF20001086840F470000860CD
:10598000BFF34F8FBFF36F8F4FF00070E1EE100A3F
:10599000704700003DFFFFFFAC080000C40B002073
:1059A000000000006DFFFFFF440100006E010000D9
:1059B0000000002000F00DF8002801D0FFF7C4FF20
:1059C000AFF300800020AFF30080FFF741FF00F04D
:1059D00002F80120704700F001B800000746384681
:1059E00000F002F8FBE7000080B5AFF30080024A48
:1059F00011001820ABBEFBE72600020001488047DB
:105A000001480047E15700080D5A0008AFF3008035
:105A1000FFF7AEFFFFF7CEFFFFF7FEBFFFF7FEBFBA
:105A2000FFF7FEBFFFF7FEBFFFF7FEBFFFF7FEBFAA
:105A3000FFF7FEBFFFF7FEBFFFF7FEBFFFF7FEBF9A
:105A4000FFF7FEBFFFF7FEBFFFF7FEBFFFF7FEBF8A
:105A5000FFF7FEBFFFF7FEBFFFF7FEBFFFF7FEBF7A
:105A6000FFF7FEBFFFF7FEBFFFF7FEBFFFF7FEBF6A
:105A7000FFF7FEBFFFF7FEBFFFF7FEBFFFF7FEBF5A
:105A8000FFF7FEBFFFF7FEBFFFF7FEBFFFF7FEBF4A
:105A9000FFF7FEBFFFF7FEBFFFF7FEBFFFF7FEBF3A
:105AA000FFF7FEBFFFF7FEBFFFF7FEBFFFF7FEBF2A
:105AB000FFF7FEBFFFF7FEBFFFF7FEBFFFF7FEBF1A
:105AC000FFF7FEBFFFF7FEBFFFF7FEBFFFF7FEBF0A
:105AD000FFF7FEBFFFF7FEBFFFF7FEBFFFF7FEBFFA
